:100000000C9463000C948B000C948B000C948B006C
:100010000C948B000C948B000C948B000C948B0034
:100020000C948B000C948B000C948B000C948B0024
:100030000C948B000C948B000C948B000C948B0014
:100040000C94D0030C948B000C941C050C948B0026
:100050000C948B000C948B000C948B000C948B00F4
:100060000C948B000C948B000000000024002700EF
:100070002A0000000000250028002B0000000000DE
:1000800023002600290004040404040404040202DA
:100090000202020203030303030301020408102007
:1000A0004080010204081020010204081020000012
:1000B0000007000201000003040600000000000029
:1000C00000009803650611241FBECFEFD4E0DEBF09
:1000D000CDBF11E0A0E0B1E0E2EDFEE002C005908E
:1000E0000D92AE32B107D9F712E0AEE2B1E001C035
:1000F0001D92AC33B107E1F710E0C6ECD0E004C0CC
:100100002297FE010E946307C23CD107C9F70E94F3
:10011000C9030C9467070C9400002F923F924F92F2
:100120005F926F927F928F929F92AF92BF92CF9287
:10013000DF92EF92FF920F931F93DF93CF9300D044
:1001400000D0CDB7DEB79C838B8300E066E6A62E99
:10015000B12CA80EB91E52E6C52ED12CC80ED91E40
:1001600013C0AB81BC818D919C91F601A081B181BE
:10017000A00FB11DFC01208131818B819C816C918C
:1001800042E0F90109950F5FD5018C91081748F3FA
:10019000EE24EB81FC81E959FF4FFA83E98344E6C1
:1001A000A42EB12C8B819C81A80EB91E36E6232E7D
:1001B000312C280E391E22E6422E512C480E591E93
:1001C00092C0CE2CDD24AB81BC818D919C91D50158
:1001D000ED91FC91EC0DFD1DDC012D913C918B818D
:1001E0009C81608141E0F9010995EB81FC8180816E
:1001F0009181D501ED91FC91EC0DFD1DDC01129674
:100200002D913C9113978B819C81608140E0F90195
:10021000099581E090E0A0E0B0E00E2C04C0880FCA
:10022000991FAA1FBB1F0A94D2F74C013C0160948E
:100230007094FF242DC00F2D10E0D201ED91FC91A0
:10024000E00FF11FD90114962D913C9115978B81E8
:100250009C816081F9010995F8013496892B59F444
:10026000EE0FFF1F8B819C81E80FF91F8081918128
:10027000882999290AC0EE0FFF1FAB81BC81EA0FC4
:10028000FB1F808191818621972191838083F39444
:10029000F1018081AB81BC812D913C91F81658F21F
:1002A000D501ED91FC91EC0DFD1DD90112962D911A
:1002B0003C9113978B819C81608141E0F901099504
:1002C000EB81FC8180819181D501ED91FC91EC0D58
:1002D000FD1DDC012D913C918B819C81608140E072
:1002E000F9010995E394E981FA818081E81608F41F
:1002F00068CF0F900F900F900F90CF91DF911F91CB
:100300000F91FF90EF90DF90CF90BF90AF909F90B4
:100310008F907F906F905F904F903F902F900895B7
:10032000DC0170E0FB01EE0FFF1FE60FF71FEE0F81
:10033000FF1FEA0FFB1F50A3478F81E081A3A45941
:10034000BF4FED91FC911197AC56B040309719F02A
:100350005C968C91099508950F931F93CF93DF932B
:10036000EC01162F042F862F90E0FC01EE0FFF1FEB
:10037000E80FF91FEE0FFF1FEC0FFD1F11A2878D75
:1003800090A181309105E1F0823091051CF4892B18
:1003900039F03FC08230910581F10397D1F534C027
:1003A0004130B9F5CE0141E050E00E9490010E9439
:1003B0001804C85ADF4F688379838A839B8329C0D6
:1003C0000E941804C85ADF4F288139814A815B8115
:1003D000621B730B840B950B629628813981CA5678
:1003E000D04040E050E0261737074807590728F467
:1003F000CE01612F42E050E00AC0002351F4CE014B
:10040000612F43E050E003C0CE0140E050E00E9485
:100410009001DF91CF911F910F9108954F925F92BC
:100420006F927F928F929F92AF92BF92DF92EF92E4
:10043000FF920F931F93CF93DF93EC01FC017C9607
:1004400020E04FEF5FEF83819481892B21F41082AC
:100450005283418315822F5F36962A30A1F7EE240E
:1004600006E6402E512C4C0E5D1E17E6612E712CB7
:100470006C0E7D1EB0E68B2E912C8C0E9D1E59C0ED
:100480002F2D30E0D8018D919C910F2C02C09695B4
:1004900087950A94E2F7DD24D394D822852F90E043
:1004A000A89EA001A99E500DB89E500D1124420F88
:1004B000531FD401ED91FC91E40FF51F2081DE0163
:1004C000FE0160E070E0858D968D8417950719F424
:1004D000CE014D2D1EC06F5F7F4F36966A3071057D
:1004E00091F752C060E070E05C968C915C97882335
:1004F00099F4FB01EE0FFF1FE60FF71FEE0FFF1F32
:10050000EC0FFD1F248F568F458F10A2178ECE0142
:1005100041E00E94AC0106C06F5F7F4F16966A30C3
:10052000710511F7F394F3015081F51608F4A8CF83
:10053000E394D2018C91E81658F4FF24AE2CBB242E
:1005400085010C5F1F4F000F111F0C0F1D1FEBCFFC
:10055000FE01B19620E090E08081811121E09F5F53
:1005600036969A30C9F7822FDF91CF911F910F9164
:10057000FF90EF90DF90BF90AF909F908F907F9013
:100580006F905F904F900895DD2009F0ABCFCACFF8
:10059000EF92FF921F93CF93DF93EC010E94180418
:1005A0002CE5E22EF12CEC0EFD1EF70120813181AD
:1005B00042815381621B730B840B950BC859DF4F2B
:1005C00028813981C856D04040E050E026173707CF
:1005D0004807590710F010E00EC0CE010E948D00B0
:1005E000CE010E940E02182F0E941804F7016083AA
:1005F000718382839383812FDF91CF911F91FF902D
:10060000EF900895CF93DF93EC010E94C8028823F6
:1006100049F089A1882331F08F8D98A1019711F4B9
:100620008C8D01C080E0DF91CF9108956F927F9211
:100630008F929F92AF92BF92CF92DF92EF92FF92F2
:100640000F931F93CF93DF93EC014B016A01590184
:10065000702E6E2C02960E948C038DE191E099839E
:1006600088833CE1E32EF12CEC0EFD1E00E010E04F
:10067000C701800F911F0E9492030A5F1F4F0C3326
:100680001105B1F7CE59DF4FC992D992A992B9920B
:100690007992688227979982888228968AE090E0EA
:1006A0008993999384EF91E08993999319821882A1
:1006B0006097188219821A821B82DF91CF911F9155
:1006C0000F91FF90EF90DF90CF90BF90AF909F90F1
:1006D0008F907F906F900895862F0E94CD0408958B
:1006E000862F642F0E94800408950F931F93162F66
:1006F000042F423021F4862F60E00E946004812F95
:1007000061E00E948004023021F0812F602F0E945E
:1007100060041F910F910895FC01108214821382CE
:1007200015820895FC0110821482138215820895A7
:10073000EF920F938EE291E061E071E041E151E0D0
:1007400025E131E004E0E4E0EE2E0E9416030F9173
:10075000EF9008951F938EE291E00E940203182FFC
:10076000882361F080E3809300018DE061E00E94C6
:10077000800489E292E0612F0E94D6061F910895BD
:1007800089E292E040E855E260E070E00E9459059D
:1007900008950E9426040E94C0030E94AA03FDCF70
:1007A0001F920F920FB60F9211242F933F938F93A6
:1007B0009F93AF93BF938091A0019091A101A091CD
:1007C000A201B091A3013091A4010196A11DB11D18
:1007D000232F2D5F2D3720F02D570196A11DB11D20
:1007E0002093A4018093A0019093A101A093A20162
:1007F000B093A30180919C0190919D01A0919E01D5
:10080000B0919F010196A11DB11D80939C01909311
:100810009D01A0939E01B0939F01BF91AF919F91C5
:100820008F913F912F910F900FBE0F901F901895B1
:100830008FB7F8942091A0013091A1014091A201BD
:100840005091A3018FBFB901CA010895789484B56E
:10085000826084BD84B5816084BD85B5826085BDBC
:1008600085B5816085BDEEE6F0E0808181608083A2
:10087000E1E8F0E080818260808380818160808314
:10088000E0E8F0E0808181608083E1EBF0E080814E
:1008900084608083E0EBF0E0808181608083EAE720
:1008A000F0E08081846080838081826080838081A9
:1008B000816080838081806880831092C100089568
:1008C000282F30E0C90186569F4FFC0194912A578A
:1008D0003F4FF9018491882391F0E82FF0E0EE0F6B
:1008E000FF1FE859FF4FA591B491662329F48C911D
:1008F000909589238C9308958C91892B8C930895DE
:10090000482F50E0CA0182559F4FFC012491CA0133
:1009100086569F4FFC0194914A575F4FFA013491DC
:100920003323D1F1222331F1233021F4809180004F
:100930008F7705C0243031F4809180008F7D8093C3
:10094000800018C0213019F484B58F7704C022309C
:1009500021F484B58F7D84BD0DC0263021F48091B3
:10096000B0008F7705C0273029F48091B0008F7DCB
:100970008093B000E32FF0E0EE0FFF1FEE58FF4F23
:10098000A591B491662329F48C91909589238C9339
:1009900008958C91892B8C930895682F70E0CB017A
:1009A00082559F4FFC012491CB0186569F4FFC013D
:1009B00044916A577F4FFB019491992319F420E0E9
:1009C00030E038C0222331F1233021F480918000BF
:1009D0008F7705C0243031F4809180008F7D809323
:1009E000800018C0213019F484B58F7704C02230FC
:1009F00021F484B58F7D84BD0DC0263021F4809113
:100A0000B0008F7705C0273029F48091B0008F7D2A
:100A10008093B000892F90E0880F991F84589F4FD2
:100A2000FC01A591B4918C9120E030E0842311F079
:100A300021E030E0C90108951F920F920FB60F9286
:100A400011242F933F934F935F936F937F938F93D3
:100A50009F93AF93BF93EF93FF934091C600E091B4
:100A60002502F0912602CF01019660E870E00E9415
:100A7000FD069C01809127029091280228173907D2
:100A800039F0EB55FE4F4083309326022093250228
:100A9000FF91EF91BF91AF919F918F917F916F9156
:100AA0005F914F913F912F910F900FBE0F901F902C
:100AB00018955F926F927F928F929F92AF92BF92A2
:100AC000CF92DF92EF92FF920F931F93CF93DF931A
:100AD000EC013A014B01413482E458078FE068078A
:100AE00080E078070CF07FC060E874E88EE190E069
:100AF000A40193010E9432072150304040405040F1
:100B0000CA01B90122E030E040E050E00E94320723
:100B100059016A01A601950120953095409550959F
:100B200094E0220F331F441F551F9A95D1F760E0C0
:100B300074E284EF90E00E943207CA01B9012FEFFE
:100B400030E040E050E00E94DE06A40193010E94E4
:100B50003207C90181509F4F181619061CF4522EF6
:100B60005A9403C055245394521A60E079E08DE3FF
:100B700090E0A40193010E94320721503040404090
:100B80005040CA01B90122E030E040E050E00E944C
:100B90003207209530954095509583E0220F331F02
:100BA000441F551F8A95D1F760E074E284EF90E00E
:100BB0000E943207CA01B9012FEF30E040E050E057
:100BC0000E94DE06A40193010E943207C9018150F0
:100BD0009F4F181619061CF4822F815002C081E025
:100BE000821B851500F5E885F98581E090E00A888B
:100BF00002C0880F991F0A94E2F7808360E079E0D1
:100C00008DE390E0A40193010E943207215030400F
:100C100040405040CA01B90122E030E040E050E0DD
:100C20000E94320704C0E885F98510829501EC81A5
:100C3000FD813083EE81FF812083EA85FB85208161
:100C400041E050E0CA010E8402C0880F991F0A9447
:100C5000E2F7282B2083EA85FB852081CA010F84D7
:100C600002C0880F991F0A94E2F7282B2083EA8597
:100C7000FB858081088802C0440F551F0A94E2F763
:100C8000842B8083DF91CF911F910F91FF90EF9084
:100C9000DF90CF90BF90AF909F908F907F906F909C
:100CA0005F900895FC01A085B18521898C9190E029
:100CB000022E02C0959587950A94E2F780FFF6CF41
:100CC0000484F585E02D6083089587E291E0909398
:100CD0002A028093290285EA91E090932C02809366
:100CE0002B0285EC90E090932E0280932D0284ECF1
:100CF00090E09093300280932F0280EC90E09093EC
:100D000032028093310281EC90E090933402809320
:100D1000330286EC90E0909336028093350284E0B3
:100D20008093370283E08093380287E08093390212
:100D300085E080933A0281E080933B0208950F930F
:100D40001F93CF93DF938C01EB0109C02196D8014B
:100D5000ED91FC910190F081E02DC8010995688129
:100D60006623A1F7DF91CF911F910F910895EF9224
:100D7000FF920F931F93CF93DF938C017B01EA01C6
:100D80000CC0D7016D917D01D801ED91FC910190CE
:100D9000F081E02DC80109952197209791F7DF9107
:100DA000CF911F910F91FF90EF900895DC01ED918D
:100DB000FC910190F081E02D09950895629FD0018A
:100DC000739FF001829FE00DF11D649FE00DF11D06
:100DD000929FF00D839FF00D749FF00D659FF00DB5
:100DE0009927729FB00DE11DF91F639FB00DE11DA2
:100DF000F91FBD01CF011124089597FB092E072685
:100E00000AD077FD04D049D006D000201AF470959E
:100E100061957F4F0895F6F7909581959F4F0895BE
:100E2000A1E21A2EAA1BBB1BFD010DC0AA1FBB1FEE
:100E3000EE1FFF1FA217B307E407F50720F0A21B60
:100E4000B30BE40BF50B661F771F881F991F1A94CD
:100E500069F760957095809590959B01AC01BD01F7
:100E6000CF01089597FB092E05260ED057FD04D01B
:100E7000D7DF0AD0001C38F4509540953095219565
:100E80003F4F4F4F5F4F0895F6F7909580957095BF
:100E900061957F4F8F4F9F4F0895AA1BBB1B51E158
:100EA00007C0AA1FBB1FA617B70710F0A61BB70BDA
:100EB000881F991F5A95A9F780959095BC01CD017F
:100EC0000895EE0FFF1F0590F491E02D0994F8941A
:020ED000FFCF52
:100ED200303132334134353642373839432A3023C0
:100EE200440C0B0A09080706050000000075037090
:0E0EF200036C030000000052069F06B70600C6
:00000001FF
